{
  "abi": [
    {
      "inputs": [
        {
          "internalType": "uint8",
          "name": "_decimals",
          "type": "uint8"
        },
        {
          "internalType": "uint256",
          "name": "_fee",
          "type": "uint256"
        }
      ],
      "stateMutability": "nonpayable",
      "type": "constructor"
    },
    {
      "anonymous": false,
      "inputs": [
        {
          "indexed": true,
          "internalType": "address",
          "name": "owner",
          "type": "address"
        },
        {
          "indexed": true,
          "internalType": "address",
          "name": "spender",
          "type": "address"
        },
        {
          "indexed": false,
          "internalType": "uint256",
          "name": "amount",
          "type": "uint256"
        }
      ],
      "name": "Approval",
      "type": "event"
    },
    {
      "anonymous": false,
      "inputs": [
        {
          "indexed": true,
          "internalType": "address",
          "name": "from",
          "type": "address"
        },
        {
          "indexed": false,
          "internalType": "uint256",
          "name": "amount",
          "type": "uint256"
        },
        {
          "indexed": false,
          "internalType": "string",
          "name": "fhe_pk",
          "type": "string"
        }
      ],
      "name": "Buy_fETH",
      "type": "event"
    },
    {
      "anonymous": false,
      "inputs": [
        {
          "indexed": true,
          "internalType": "address",
          "name": "from",
          "type": "address"
        },
        {
          "indexed": false,
          "internalType": "uint256",
          "name": "amount",
          "type": "uint256"
        }
      ],
      "name": "ReveivedEther",
      "type": "event"
    },
    {
      "anonymous": false,
      "inputs": [
        {
          "indexed": true,
          "internalType": "address",
          "name": "from",
          "type": "address"
        },
        {
          "indexed": false,
          "internalType": "bytes32",
          "name": "fhe_tx_hash",
          "type": "bytes32"
        },
        {
          "indexed": false,
          "internalType": "string",
          "name": "fhe_tx_sender",
          "type": "string"
        },
        {
          "indexed": false,
          "internalType": "string",
          "name": "fhe_tx_receiver",
          "type": "string"
        },
        {
          "indexed": false,
          "internalType": "string",
          "name": "fhe_proof",
          "type": "string"
        }
      ],
      "name": "Send_fhe_tx",
      "type": "event"
    },
    {
      "anonymous": false,
      "inputs": [
        {
          "indexed": true,
          "internalType": "address",
          "name": "from",
          "type": "address"
        },
        {
          "indexed": true,
          "internalType": "address",
          "name": "to",
          "type": "address"
        },
        {
          "indexed": false,
          "internalType": "uint256",
          "name": "amount",
          "type": "uint256"
        }
      ],
      "name": "Transfer",
      "type": "event"
    },
    {
      "anonymous": false,
      "inputs": [
        {
          "indexed": true,
          "internalType": "address",
          "name": "to",
          "type": "address"
        },
        {
          "indexed": false,
          "internalType": "uint256",
          "name": "amount",
          "type": "uint256"
        },
        {
          "indexed": false,
          "internalType": "string",
          "name": "fhe_pk_new",
          "type": "string"
        }
      ],
      "name": "Withdraw_ETH_Approved",
      "type": "event"
    },
    {
      "anonymous": false,
      "inputs": [
        {
          "indexed": true,
          "internalType": "address",
          "name": "to",
          "type": "address"
        },
        {
          "indexed": false,
          "internalType": "uint256",
          "name": "amount",
          "type": "uint256"
        },
        {
          "indexed": false,
          "internalType": "string",
          "name": "fhe_pk_new",
          "type": "string"
        },
        {
          "indexed": false,
          "internalType": "string",
          "name": "fhe_sk_old",
          "type": "string"
        }
      ],
      "name": "Withdraw_ETH_Request",
      "type": "event"
    },
    {
      "inputs": [],
      "name": "DOMAIN_SEPARATOR",
      "outputs": [
        {
          "internalType": "bytes32",
          "name": "",
          "type": "bytes32"
        }
      ],
      "stateMutability": "view",
      "type": "function"
    },
    {
      "inputs": [],
      "name": "FEE",
      "outputs": [
        {
          "internalType": "uint256",
          "name": "",
          "type": "uint256"
        }
      ],
      "stateMutability": "view",
      "type": "function"
    },
    {
      "inputs": [
        {
          "internalType": "address",
          "name": "",
          "type": "address"
        },
        {
          "internalType": "address",
          "name": "",
          "type": "address"
        }
      ],
      "name": "allowance",
      "outputs": [
        {
          "internalType": "uint256",
          "name": "",
          "type": "uint256"
        }
      ],
      "stateMutability": "view",
      "type": "function"
    },
    {
      "inputs": [
        {
          "internalType": "address",
          "name": "spender",
          "type": "address"
        },
        {
          "internalType": "uint256",
          "name": "amount",
          "type": "uint256"
        }
      ],
      "name": "approve",
      "outputs": [
        {
          "internalType": "bool",
          "name": "",
          "type": "bool"
        }
      ],
      "stateMutability": "nonpayable",
      "type": "function"
    },
    {
      "inputs": [
        {
          "internalType": "address",
          "name": "",
          "type": "address"
        }
      ],
      "name": "balanceOf",
      "outputs": [
        {
          "internalType": "uint256",
          "name": "",
          "type": "uint256"
        }
      ],
      "stateMutability": "view",
      "type": "function"
    },
    {
      "inputs": [
        {
          "internalType": "string",
          "name": "_pk",
          "type": "string"
        }
      ],
      "name": "buy_fETH",
      "outputs": [],
      "stateMutability": "payable",
      "type": "function"
    },
    {
      "inputs": [
        {
          "internalType": "address payable",
          "name": "_owner",
          "type": "address"
        }
      ],
      "name": "changeOwner",
      "outputs": [],
      "stateMutability": "nonpayable",
      "type": "function"
    },
    {
      "inputs": [],
      "name": "decimals",
      "outputs": [
        {
          "internalType": "uint8",
          "name": "",
          "type": "uint8"
        }
      ],
      "stateMutability": "view",
      "type": "function"
    },
    {
      "inputs": [
        {
          "internalType": "address",
          "name": "",
          "type": "address"
        }
      ],
      "name": "hasUser",
      "outputs": [
        {
          "internalType": "bool",
          "name": "",
          "type": "bool"
        }
      ],
      "stateMutability": "view",
      "type": "function"
    },
    {
      "inputs": [],
      "name": "name",
      "outputs": [
        {
          "internalType": "string",
          "name": "",
          "type": "string"
        }
      ],
      "stateMutability": "view",
      "type": "function"
    },
    {
      "inputs": [
        {
          "internalType": "address",
          "name": "",
          "type": "address"
        }
      ],
      "name": "nonces",
      "outputs": [
        {
          "internalType": "uint256",
          "name": "",
          "type": "uint256"
        }
      ],
      "stateMutability": "view",
      "type": "function"
    },
    {
      "inputs": [],
      "name": "owner",
      "outputs": [
        {
          "internalType": "address payable",
          "name": "",
          "type": "address"
        }
      ],
      "stateMutability": "view",
      "type": "function"
    },
    {
      "inputs": [
        {
          "internalType": "address",
          "name": "owner",
          "type": "address"
        },
        {
          "internalType": "address",
          "name": "spender",
          "type": "address"
        },
        {
          "internalType": "uint256",
          "name": "value",
          "type": "uint256"
        },
        {
          "internalType": "uint256",
          "name": "deadline",
          "type": "uint256"
        },
        {
          "internalType": "uint8",
          "name": "v",
          "type": "uint8"
        },
        {
          "internalType": "bytes32",
          "name": "r",
          "type": "bytes32"
        },
        {
          "internalType": "bytes32",
          "name": "s",
          "type": "bytes32"
        }
      ],
      "name": "permit",
      "outputs": [],
      "stateMutability": "nonpayable",
      "type": "function"
    },
    {
      "inputs": [
        {
          "internalType": "string",
          "name": "_fhe_tx_sender",
          "type": "string"
        },
        {
          "internalType": "string",
          "name": "_fhe_tx_receiver",
          "type": "string"
        },
        {
          "internalType": "string",
          "name": "_fhe_proof",
          "type": "string"
        }
      ],
      "name": "send_fhe_tx",
      "outputs": [],
      "stateMutability": "payable",
      "type": "function"
    },
    {
      "inputs": [],
      "name": "symbol",
      "outputs": [
        {
          "internalType": "string",
          "name": "",
          "type": "string"
        }
      ],
      "stateMutability": "view",
      "type": "function"
    },
    {
      "inputs": [],
      "name": "totalSupply",
      "outputs": [
        {
          "internalType": "uint256",
          "name": "",
          "type": "uint256"
        }
      ],
      "stateMutability": "view",
      "type": "function"
    },
    {
      "inputs": [],
      "name": "total_fees",
      "outputs": [
        {
          "internalType": "uint256",
          "name": "",
          "type": "uint256"
        }
      ],
      "stateMutability": "view",
      "type": "function"
    },
    {
      "inputs": [
        {
          "internalType": "address",
          "name": "to",
          "type": "address"
        },
        {
          "internalType": "uint256",
          "name": "amount",
          "type": "uint256"
        }
      ],
      "name": "transfer",
      "outputs": [
        {
          "internalType": "bool",
          "name": "",
          "type": "bool"
        }
      ],
      "stateMutability": "nonpayable",
      "type": "function"
    },
    {
      "inputs": [
        {
          "internalType": "address",
          "name": "from",
          "type": "address"
        },
        {
          "internalType": "address",
          "name": "to",
          "type": "address"
        },
        {
          "internalType": "uint256",
          "name": "amount",
          "type": "uint256"
        }
      ],
      "name": "transferFrom",
      "outputs": [
        {
          "internalType": "bool",
          "name": "",
          "type": "bool"
        }
      ],
      "stateMutability": "nonpayable",
      "type": "function"
    },
    {
      "inputs": [],
      "name": "withdrawFees",
      "outputs": [],
      "stateMutability": "nonpayable",
      "type": "function"
    },
    {
      "inputs": [
        {
          "internalType": "address",
          "name": "_user",
          "type": "address"
        },
        {
          "internalType": "uint256",
          "name": "_amount",
          "type": "uint256"
        },
        {
          "internalType": "string",
          "name": "_new_pk",
          "type": "string"
        }
      ],
      "name": "withdraw_ETH_approved",
      "outputs": [],
      "stateMutability": "payable",
      "type": "function"
    },
    {
      "inputs": [
        {
          "internalType": "uint256",
          "name": "_amount",
          "type": "uint256"
        },
        {
          "internalType": "string",
          "name": "_new_pk",
          "type": "string"
        },
        {
          "internalType": "string",
          "name": "_sk",
          "type": "string"
        }
      ],
      "name": "withdraw_ETH_request",
      "outputs": [],
      "stateMutability": "payable",
      "type": "function"
    },
    {
      "stateMutability": "payable",
      "type": "receive"
    }
  ],
  "bytecode": {
    "object": "0x6101006040523480156200001257600080fd5b5060405162001ad838038062001ad8833981016040819052620000359162000189565b60405180604001604052806008815260200167232422aa37b5b2b760c11b8152506040518060400160405280600381526020016211921560ea1b81525083826000908162000084919062000264565b50600162000093838262000264565b5060ff81166080524660a052620000a9620000ed565b60c0525050600680546001600160a01b031916339081179091556000908152600860205260408120805460ff1916600117905560e0929092525060075550620003ae565b60007f8b73c3c69bb8fe3d512ecc4cf759cc79239f7b179b0ffacaa9a75d522b39400f600060405162000121919062000330565b6040805191829003822060208301939093528101919091527fc89efdaa54c0f20c7adf612882df0950f5a951637e0307cdcb4c672f298b8bc660608201524660808201523060a082015260c00160405160208183030381529060405280519060200120905090565b600080604083850312156200019d57600080fd5b825160ff81168114620001af57600080fd5b6020939093015192949293505050565b634e487b7160e01b600052604160045260246000fd5b600181811c90821680620001ea57607f821691505b6020821081036200020b57634e487b7160e01b600052602260045260246000fd5b50919050565b601f8211156200025f57600081815260208120601f850160051c810160208610156200023a5750805b601f850160051c820191505b818110156200025b5782815560010162000246565b5050505b505050565b81516001600160401b03811115620002805762000280620001bf565b6200029881620002918454620001d5565b8462000211565b602080601f831160018114620002d05760008415620002b75750858301515b600019600386901b1c1916600185901b1785556200025b565b600085815260208120601f198616915b828110156200030157888601518255948401946001909101908401620002e0565b5085821015620003205787850151600019600388901b60f8161c191681555b5050505050600190811b01905550565b60008083546200034081620001d5565b600182811680156200035b57600181146200037157620003a2565b60ff1984168752821515830287019450620003a2565b8760005260208060002060005b85811015620003995781548a8201529084019082016200037e565b50505082870194505b50929695505050505050565b60805160a05160c05160e0516116b86200042060003960008181610416015281816108390152818161087901528181610a0e01528181610a4e01528181610ace01528181610b0e01528181610b4d0152610bd4015260006107b10152600061077c0152600061024001526116b86000f3fe6080604052600436106101395760003560e01c806377737f4b116100ab578063a6c4ec0e1161006f578063a6c4ec0e14610394578063a6f9dae1146103c4578063a9059cbb146103e4578063c57981b514610404578063d505accf14610438578063dd62ed3e1461045857600080fd5b806377737f4b146102f15780637ecebe0014610307578063879658ac146103345780638da5cb5b1461034757806395d89b411461037f57600080fd5b8063313ce567116100fd578063313ce5671461022e5780633644e5151461027457806340f0e1eb14610289578063476343ee1461029c57806359e71ad9146102b157806370a08231146102c457600080fd5b806306fdde031461017a578063095ea7b3146101a55780630c30b51a146101d557806318160ddd146101ea57806323b872dd1461020e57600080fd5b366101755760405134815233907f9d27e19d8398e7e56d27c9f9d4aaa44bad4c96748fd9123de20d6b9258a170729060200160405180910390a2005b600080fd5b34801561018657600080fd5b5061018f610490565b60405161019c9190611030565b60405180910390f35b3480156101b157600080fd5b506101c56101c0366004611096565b61051e565b604051901515815260200161019c565b6101e86101e336600461110b565b61058b565b005b3480156101f657600080fd5b5061020060025481565b60405190815260200161019c565b34801561021a57600080fd5b506101c5610229366004611167565b610686565b34801561023a57600080fd5b506102627f000000000000000000000000000000000000000000000000000000000000000081565b60405160ff909116815260200161019c565b34801561028057600080fd5b50610200610778565b6101e86102973660046111a8565b6107d3565b3480156102a857600080fd5b506101e861093a565b6101e86102bf366004611242565b6109a8565b3480156102d057600080fd5b506102006102df3660046112bc565b60036020526000908152604090205481565b3480156102fd57600080fd5b5061020060075481565b34801561031357600080fd5b506102006103223660046112bc565b60056020526000908152604090205481565b6101e86103423660046112e0565b610acc565b34801561035357600080fd5b50600654610367906001600160a01b031681565b6040516001600160a01b03909116815260200161019c565b34801561038b57600080fd5b5061018f610c16565b3480156103a057600080fd5b506101c56103af3660046112bc565b60086020526000908152604090205460ff1681565b3480156103d057600080fd5b506101e86103df3660046112bc565b610c23565b3480156103f057600080fd5b506101c56103ff366004611096565b610c6f565b34801561041057600080fd5b506102007f000000000000000000000000000000000000000000000000000000000000000081565b34801561044457600080fd5b506101e8610453366004611322565b610ce7565b34801561046457600080fd5b50610200610473366004611399565b600460209081526000928352604080842090915290825290205481565b6000805461049d906113d2565b80601f01602080910402602001604051908101604052809291908181526020018280546104c9906113d2565b80156105165780601f106104eb57610100808354040283529160200191610516565b820191906000526020600020905b8154815290600101906020018083116104f957829003601f168201915b505050505081565b3360008181526004602090815260408083206001600160a01b038716808552925280832085905551919290917f8c5be1e5ebec7d5bd14f71427d1e84f3dd0314c0f7b2291e5b200ac8c7c3b925906105799086815260200190565b60405180910390a35060015b92915050565b6006546001600160a01b031633146105be5760405162461bcd60e51b81526004016105b59061140c565b60405180910390fd5b6040516001600160a01b0385169084156108fc029085906000818181858888f193505050501580156105f4573d6000803e3d6000fd5b50836001600160a01b03167ff6d9101a50ae3cf9f2cc1b9e239435fb3305cb2b73d786957fa3378f37a89b4a6000848460405161063393929190611480565b60405180910390a2836001600160a01b03167fab6283d3a6e5b85bd2ea66cf5f3247509ccd83edb07d02c4f2271b8966b3dc9784848460405161067893929190611480565b60405180910390a250505050565b6001600160a01b038316600090815260046020908152604080832033845290915281205460001981146106e2576106bd83826114b9565b6001600160a01b03861660009081526004602090815260408083203384529091529020555b6001600160a01b0385166000908152600360205260408120805485929061070a9084906114b9565b90915550506001600160a01b03808516600081815260036020526040908190208054870190555190918716907fddf252ad1be2c89b69c2b068fc378daa952ba7f163c4a11628f55a4df523b3ef906107659087815260200190565b60405180910390a3506001949350505050565b60007f000000000000000000000000000000000000000000000000000000000000000046146107ae576107a9610f2b565b905090565b507f000000000000000000000000000000000000000000000000000000000000000090565b3360009081526008602052604090205460ff1615156001146108375760405162461bcd60e51b815260206004820152601e60248201527f464845546f6b656e3a2073656e646572206973206e6f7420612075736572000060448201526064016105b5565b7f00000000000000000000000000000000000000000000000000000000000000003410156108775760405162461bcd60e51b81526004016105b5906114cc565b7f0000000000000000000000000000000000000000000000000000000000000000600760008282546108a99190611501565b90915550506040516000906108cc90339089908990899089904390602001611514565b604051602081830303815290604052805190602001209050336001600160a01b03167f723a9df967d9904fe0a81a346e92258309af285f4251fa72d58b4d018a9dc71982898989898989604051610929979695949392919061155a565b60405180910390a250505050505050565b6006546001600160a01b031633146109645760405162461bcd60e51b81526004016105b59061140c565b6006546007546040516001600160a01b039092169181156108fc0291906000818181858888f193505050501580156109a0573d6000803e3d6000fd5b506000600755565b3360009081526008602052604090205460ff161515600114610a0c5760405162461bcd60e51b815260206004820152601e60248201527f464845546f6b656e3a2073656e646572206973206e6f7420612075736572000060448201526064016105b5565b7f0000000000000000000000000000000000000000000000000000000000000000341015610a4c5760405162461bcd60e51b81526004016105b5906114cc565b7f000000000000000000000000000000000000000000000000000000000000000060076000828254610a7e9190611501565b909155505060405133907f5906f9f413f54fb4a80aa7eb2a04f1a14b9e4f91cfd1f4209b938362ce30f6de90610abd90889088908890889088906115aa565b60405180910390a25050505050565b7f0000000000000000000000000000000000000000000000000000000000000000341015610b0c5760405162461bcd60e51b81526004016105b5906114cc565b7f000000000000000000000000000000000000000000000000000000000000000060076000828254610b3e9190611501565b90915550610b77905033610b727f0000000000000000000000000000000000000000000000000000000000000000346114b9565b610fc5565b3360009081526008602052604081205460ff1615159003610bad57336000908152600860205260409020805460ff191660011790555b337ff6d9101a50ae3cf9f2cc1b9e239435fb3305cb2b73d786957fa3378f37a89b4a610bf97f0000000000000000000000000000000000000000000000000000000000000000346114b9565b8484604051610c0a93929190611480565b60405180910390a25050565b6001805461049d906113d2565b6006546001600160a01b03163314610c4d5760405162461bcd60e51b81526004016105b59061140c565b600680546001600160a01b0319166001600160a01b0392909216919091179055565b33600090815260036020526040812080548391908390610c909084906114b9565b90915550506001600160a01b038316600081815260036020526040908190208054850190555133907fddf252ad1be2c89b69c2b068fc378daa952ba7f163c4a11628f55a4df523b3ef906105799086815260200190565b42841015610d375760405162461bcd60e51b815260206004820152601760248201527f5045524d49545f444541444c494e455f4558504952454400000000000000000060448201526064016105b5565b60006001610d43610778565b6001600160a01b038a811660008181526005602090815260409182902080546001810190915582517f6e71edae12b1b97f4d1f60370fef10105fa2faae0126114a169c64845d6126c98184015280840194909452938d166060840152608083018c905260a083019390935260c08083018b90528151808403909101815260e08301909152805192019190912061190160f01b6101008301526101028201929092526101228101919091526101420160408051601f198184030181528282528051602091820120600084529083018083525260ff871690820152606081018590526080810184905260a0016020604051602081039080840390855afa158015610e4f573d6000803e3d6000fd5b5050604051601f1901519150506001600160a01b03811615801590610e855750876001600160a01b0316816001600160a01b0316145b610ec25760405162461bcd60e51b815260206004820152600e60248201526d24a72b20a624a22fa9a4a3a722a960911b60448201526064016105b5565b6001600160a01b0390811660009081526004602090815260408083208a8516808552908352928190208990555188815291928a16917f8c5be1e5ebec7d5bd14f71427d1e84f3dd0314c0f7b2291e5b200ac8c7c3b925910160405180910390a350505050505050565b60007f8b73c3c69bb8fe3d512ecc4cf759cc79239f7b179b0ffacaa9a75d522b39400f6000604051610f5d91906115e3565b6040805191829003822060208301939093528101919091527fc89efdaa54c0f20c7adf612882df0950f5a951637e0307cdcb4c672f298b8bc660608201524660808201523060a082015260c00160405160208183030381529060405280519060200120905090565b8060026000828254610fd79190611501565b90915550506001600160a01b0382166000818152600360209081526040808320805486019055518481527fddf252ad1be2c89b69c2b068fc378daa952ba7f163c4a11628f55a4df523b3ef910160405180910390a35050565b600060208083528351808285015260005b8181101561105d57858101830151858201604001528201611041565b506000604082860101526040601f19601f8301168501019250505092915050565b6001600160a01b038116811461109357600080fd5b50565b600080604083850312156110a957600080fd5b82356110b48161107e565b946020939093013593505050565b60008083601f8401126110d457600080fd5b50813567ffffffffffffffff8111156110ec57600080fd5b60208301915083602082850101111561110457600080fd5b9250929050565b6000806000806060858703121561112157600080fd5b843561112c8161107e565b935060208501359250604085013567ffffffffffffffff81111561114f57600080fd5b61115b878288016110c2565b95989497509550505050565b60008060006060848603121561117c57600080fd5b83356111878161107e565b925060208401356111978161107e565b929592945050506040919091013590565b600080600080600080606087890312156111c157600080fd5b863567ffffffffffffffff808211156111d957600080fd5b6111e58a838b016110c2565b909850965060208901359150808211156111fe57600080fd5b61120a8a838b016110c2565b9096509450604089013591508082111561122357600080fd5b5061123089828a016110c2565b979a9699509497509295939492505050565b60008060008060006060868803121561125a57600080fd5b85359450602086013567ffffffffffffffff8082111561127957600080fd5b61128589838a016110c2565b9096509450604088013591508082111561129e57600080fd5b506112ab888289016110c2565b969995985093965092949392505050565b6000602082840312156112ce57600080fd5b81356112d98161107e565b9392505050565b600080602083850312156112f357600080fd5b823567ffffffffffffffff81111561130a57600080fd5b611316858286016110c2565b90969095509350505050565b600080600080600080600060e0888a03121561133d57600080fd5b87356113488161107e565b965060208801356113588161107e565b95506040880135945060608801359350608088013560ff8116811461137c57600080fd5b9699959850939692959460a0840135945060c09093013592915050565b600080604083850312156113ac57600080fd5b82356113b78161107e565b915060208301356113c78161107e565b809150509250929050565b600181811c908216806113e657607f821691505b60208210810361140657634e487b7160e01b600052602260045260246000fd5b50919050565b6020808252602b908201527f464845546f6b656e3a206f6e6c79206f776e65722063616e2063616c6c20746860408201526a34b990333ab731ba34b7b760a91b606082015260800190565b81835281816020850137506000828201602090810191909152601f909101601f19169091010190565b83815260406020820152600061149a604083018486611457565b95945050505050565b634e487b7160e01b600052601160045260246000fd5b81810381811115610585576105856114a3565b6020808252818101527f464845546f6b656e3a206d73672e76616c75652069736e742067657120464545604082015260600190565b80820180821115610585576105856114a3565b6bffffffffffffffffffffffff198760601b1681528486601483013760008582016014810160008152858782375060149401938401929092525050603401949350505050565b87815260806020820152600061157460808301888a611457565b8281036040840152611587818789611457565b9050828103606084015261159c818587611457565b9a9950505050505050505050565b8581526060602082015260006115c4606083018688611457565b82810360408401526115d7818587611457565b98975050505050505050565b600080835481600182811c9150808316806115ff57607f831692505b6020808410820361161e57634e487b7160e01b86526022600452602486fd5b818015611632576001811461164757611674565b60ff1986168952841515850289019650611674565b60008a81526020902060005b8681101561166c5781548b820152908501908301611653565b505084890196505b50949897505050505050505056fea26469706673582212207c34c6cde5d3a74f6f74a93aa29c897a4a8b813092bedc6dfd965ab95148c8a164736f6c63430008140033",
    "linkReferences": {}
  },
  "methodIdentifiers": {
    "DOMAIN_SEPARATOR()": "3644e515",
    "FEE()": "c57981b5",
    "allowance(address,address)": "dd62ed3e",
    "approve(address,uint256)": "095ea7b3",
    "balanceOf(address)": "70a08231",
    "buy_fETH(string)": "879658ac",
    "changeOwner(address)": "a6f9dae1",
    "decimals()": "313ce567",
    "hasUser(address)": "a6c4ec0e",
    "name()": "06fdde03",
    "nonces(address)": "7ecebe00",
    "owner()": "8da5cb5b",
    "permit(address,address,uint256,uint256,uint8,bytes32,bytes32)": "d505accf",
    "send_fhe_tx(string,string,string)": "40f0e1eb",
    "symbol()": "95d89b41",
    "totalSupply()": "18160ddd",
    "total_fees()": "77737f4b",
    "transfer(address,uint256)": "a9059cbb",
    "transferFrom(address,address,uint256)": "23b872dd",
    "withdrawFees()": "476343ee",
    "withdraw_ETH_approved(address,uint256,string)": "0c30b51a",
    "withdraw_ETH_request(uint256,string,string)": "59e71ad9"
  },
  "id": 18
}