{
  "abi": [
    {
      "inputs": [
        {
          "internalType": "uint8",
          "name": "_decimals",
          "type": "uint8"
        },
        {
          "internalType": "uint256",
          "name": "_fee",
          "type": "uint256"
        }
      ],
      "stateMutability": "nonpayable",
      "type": "constructor"
    },
    {
      "anonymous": false,
      "inputs": [
        {
          "indexed": true,
          "internalType": "address",
          "name": "owner",
          "type": "address"
        },
        {
          "indexed": true,
          "internalType": "address",
          "name": "spender",
          "type": "address"
        },
        {
          "indexed": false,
          "internalType": "uint256",
          "name": "amount",
          "type": "uint256"
        }
      ],
      "name": "Approval",
      "type": "event"
    },
    {
      "anonymous": false,
      "inputs": [
        {
          "indexed": true,
          "internalType": "address",
          "name": "from",
          "type": "address"
        },
        {
          "indexed": false,
          "internalType": "uint256",
          "name": "amount",
          "type": "uint256"
        },
        {
          "indexed": false,
          "internalType": "string",
          "name": "fhe_pk",
          "type": "string"
        },
        {
          "indexed": false,
          "internalType": "string",
          "name": "fhe_balance_init",
          "type": "string"
        }
      ],
      "name": "Deposit_fETH",
      "type": "event"
    },
    {
      "anonymous": false,
      "inputs": [
        {
          "indexed": true,
          "internalType": "address",
          "name": "from",
          "type": "address"
        },
        {
          "indexed": false,
          "internalType": "uint256",
          "name": "amount",
          "type": "uint256"
        }
      ],
      "name": "ReveivedEther",
      "type": "event"
    },
    {
      "anonymous": false,
      "inputs": [
        {
          "indexed": true,
          "internalType": "address",
          "name": "from",
          "type": "address"
        },
        {
          "indexed": false,
          "internalType": "bytes32",
          "name": "fhe_tx_hash",
          "type": "bytes32"
        },
        {
          "indexed": false,
          "internalType": "string",
          "name": "fhe_tx_sender",
          "type": "string"
        },
        {
          "indexed": false,
          "internalType": "string",
          "name": "fhe_tx_receiver",
          "type": "string"
        },
        {
          "indexed": false,
          "internalType": "string",
          "name": "fhe_proof",
          "type": "string"
        }
      ],
      "name": "Send_fhe_tx",
      "type": "event"
    },
    {
      "anonymous": false,
      "inputs": [
        {
          "indexed": true,
          "internalType": "address",
          "name": "from",
          "type": "address"
        },
        {
          "indexed": true,
          "internalType": "address",
          "name": "to",
          "type": "address"
        },
        {
          "indexed": false,
          "internalType": "uint256",
          "name": "amount",
          "type": "uint256"
        }
      ],
      "name": "Transfer",
      "type": "event"
    },
    {
      "anonymous": false,
      "inputs": [
        {
          "indexed": true,
          "internalType": "address",
          "name": "to",
          "type": "address"
        },
        {
          "indexed": false,
          "internalType": "uint256",
          "name": "amount",
          "type": "uint256"
        },
        {
          "indexed": false,
          "internalType": "string",
          "name": "fhe_pk_new",
          "type": "string"
        },
        {
          "indexed": false,
          "internalType": "string",
          "name": "fhe_new_balance",
          "type": "string"
        }
      ],
      "name": "Withdraw_ETH_Approved",
      "type": "event"
    },
    {
      "anonymous": false,
      "inputs": [
        {
          "indexed": true,
          "internalType": "address",
          "name": "to",
          "type": "address"
        },
        {
          "indexed": false,
          "internalType": "uint256",
          "name": "amount",
          "type": "uint256"
        },
        {
          "indexed": false,
          "internalType": "string",
          "name": "fhe_pk_new",
          "type": "string"
        },
        {
          "indexed": false,
          "internalType": "string",
          "name": "fhe_sk_old",
          "type": "string"
        },
        {
          "indexed": false,
          "internalType": "string",
          "name": "fhe_new_balance",
          "type": "string"
        }
      ],
      "name": "Withdraw_ETH_Request",
      "type": "event"
    },
    {
      "inputs": [],
      "name": "DOMAIN_SEPARATOR",
      "outputs": [
        {
          "internalType": "bytes32",
          "name": "",
          "type": "bytes32"
        }
      ],
      "stateMutability": "view",
      "type": "function"
    },
    {
      "inputs": [],
      "name": "FEE",
      "outputs": [
        {
          "internalType": "uint256",
          "name": "",
          "type": "uint256"
        }
      ],
      "stateMutability": "view",
      "type": "function"
    },
    {
      "inputs": [
        {
          "internalType": "address",
          "name": "",
          "type": "address"
        },
        {
          "internalType": "address",
          "name": "",
          "type": "address"
        }
      ],
      "name": "allowance",
      "outputs": [
        {
          "internalType": "uint256",
          "name": "",
          "type": "uint256"
        }
      ],
      "stateMutability": "view",
      "type": "function"
    },
    {
      "inputs": [
        {
          "internalType": "address",
          "name": "spender",
          "type": "address"
        },
        {
          "internalType": "uint256",
          "name": "amount",
          "type": "uint256"
        }
      ],
      "name": "approve",
      "outputs": [
        {
          "internalType": "bool",
          "name": "",
          "type": "bool"
        }
      ],
      "stateMutability": "nonpayable",
      "type": "function"
    },
    {
      "inputs": [
        {
          "internalType": "address",
          "name": "",
          "type": "address"
        }
      ],
      "name": "balanceOf",
      "outputs": [
        {
          "internalType": "uint256",
          "name": "",
          "type": "uint256"
        }
      ],
      "stateMutability": "view",
      "type": "function"
    },
    {
      "inputs": [
        {
          "internalType": "address payable",
          "name": "_owner",
          "type": "address"
        }
      ],
      "name": "changeOwner",
      "outputs": [],
      "stateMutability": "nonpayable",
      "type": "function"
    },
    {
      "inputs": [],
      "name": "decimals",
      "outputs": [
        {
          "internalType": "uint8",
          "name": "",
          "type": "uint8"
        }
      ],
      "stateMutability": "view",
      "type": "function"
    },
    {
      "inputs": [
        {
          "internalType": "string",
          "name": "_fhe_pk",
          "type": "string"
        },
        {
          "internalType": "string",
          "name": "_fhe_balance_init",
          "type": "string"
        }
      ],
      "name": "deposit_fETH",
      "outputs": [],
      "stateMutability": "payable",
      "type": "function"
    },
    {
      "inputs": [
        {
          "internalType": "address",
          "name": "",
          "type": "address"
        }
      ],
      "name": "hasUser",
      "outputs": [
        {
          "internalType": "bool",
          "name": "",
          "type": "bool"
        }
      ],
      "stateMutability": "view",
      "type": "function"
    },
    {
      "inputs": [],
      "name": "name",
      "outputs": [
        {
          "internalType": "string",
          "name": "",
          "type": "string"
        }
      ],
      "stateMutability": "view",
      "type": "function"
    },
    {
      "inputs": [
        {
          "internalType": "address",
          "name": "",
          "type": "address"
        }
      ],
      "name": "nonces",
      "outputs": [
        {
          "internalType": "uint256",
          "name": "",
          "type": "uint256"
        }
      ],
      "stateMutability": "view",
      "type": "function"
    },
    {
      "inputs": [],
      "name": "owner",
      "outputs": [
        {
          "internalType": "address payable",
          "name": "",
          "type": "address"
        }
      ],
      "stateMutability": "view",
      "type": "function"
    },
    {
      "inputs": [
        {
          "internalType": "address",
          "name": "owner",
          "type": "address"
        },
        {
          "internalType": "address",
          "name": "spender",
          "type": "address"
        },
        {
          "internalType": "uint256",
          "name": "value",
          "type": "uint256"
        },
        {
          "internalType": "uint256",
          "name": "deadline",
          "type": "uint256"
        },
        {
          "internalType": "uint8",
          "name": "v",
          "type": "uint8"
        },
        {
          "internalType": "bytes32",
          "name": "r",
          "type": "bytes32"
        },
        {
          "internalType": "bytes32",
          "name": "s",
          "type": "bytes32"
        }
      ],
      "name": "permit",
      "outputs": [],
      "stateMutability": "nonpayable",
      "type": "function"
    },
    {
      "inputs": [
        {
          "internalType": "string",
          "name": "_fhe_tx_sender",
          "type": "string"
        },
        {
          "internalType": "string",
          "name": "_fhe_tx_receiver",
          "type": "string"
        },
        {
          "internalType": "string",
          "name": "_fhe_proof",
          "type": "string"
        }
      ],
      "name": "send_fhe_tx",
      "outputs": [],
      "stateMutability": "payable",
      "type": "function"
    },
    {
      "inputs": [],
      "name": "symbol",
      "outputs": [
        {
          "internalType": "string",
          "name": "",
          "type": "string"
        }
      ],
      "stateMutability": "view",
      "type": "function"
    },
    {
      "inputs": [],
      "name": "totalSupply",
      "outputs": [
        {
          "internalType": "uint256",
          "name": "",
          "type": "uint256"
        }
      ],
      "stateMutability": "view",
      "type": "function"
    },
    {
      "inputs": [],
      "name": "total_fees",
      "outputs": [
        {
          "internalType": "uint256",
          "name": "",
          "type": "uint256"
        }
      ],
      "stateMutability": "view",
      "type": "function"
    },
    {
      "inputs": [
        {
          "internalType": "address",
          "name": "to",
          "type": "address"
        },
        {
          "internalType": "uint256",
          "name": "amount",
          "type": "uint256"
        }
      ],
      "name": "transfer",
      "outputs": [
        {
          "internalType": "bool",
          "name": "",
          "type": "bool"
        }
      ],
      "stateMutability": "nonpayable",
      "type": "function"
    },
    {
      "inputs": [
        {
          "internalType": "address",
          "name": "from",
          "type": "address"
        },
        {
          "internalType": "address",
          "name": "to",
          "type": "address"
        },
        {
          "internalType": "uint256",
          "name": "amount",
          "type": "uint256"
        }
      ],
      "name": "transferFrom",
      "outputs": [
        {
          "internalType": "bool",
          "name": "",
          "type": "bool"
        }
      ],
      "stateMutability": "nonpayable",
      "type": "function"
    },
    {
      "inputs": [],
      "name": "withdrawFees",
      "outputs": [],
      "stateMutability": "nonpayable",
      "type": "function"
    },
    {
      "inputs": [
        {
          "internalType": "address",
          "name": "_user",
          "type": "address"
        },
        {
          "internalType": "uint256",
          "name": "_amount",
          "type": "uint256"
        },
        {
          "internalType": "string",
          "name": "_new_fhe_pk",
          "type": "string"
        },
        {
          "internalType": "string",
          "name": "_fhe_new_balance",
          "type": "string"
        }
      ],
      "name": "withdraw_ETH_approved",
      "outputs": [],
      "stateMutability": "payable",
      "type": "function"
    },
    {
      "inputs": [
        {
          "internalType": "uint256",
          "name": "_amount",
          "type": "uint256"
        },
        {
          "internalType": "string",
          "name": "_fhe_sk",
          "type": "string"
        },
        {
          "internalType": "string",
          "name": "_new_fhe_pk",
          "type": "string"
        },
        {
          "internalType": "string",
          "name": "_fhe_new_balance",
          "type": "string"
        }
      ],
      "name": "withdraw_ETH_request",
      "outputs": [],
      "stateMutability": "payable",
      "type": "function"
    },
    {
      "stateMutability": "payable",
      "type": "receive"
    }
  ],
  "bytecode": {
    "object": "0x6101006040523480156200001257600080fd5b5060405162001b1b38038062001b1b833981016040819052620000359162000189565b60405180604001604052806008815260200167232422aa37b5b2b760c11b8152506040518060400160405280600381526020016211921560ea1b81525083826000908162000084919062000264565b50600162000093838262000264565b5060ff81166080524660a052620000a9620000ed565b60c0525050600680546001600160a01b031916339081179091556000908152600860205260408120805460ff1916600117905560e0929092525060075550620003ae565b60007f8b73c3c69bb8fe3d512ecc4cf759cc79239f7b179b0ffacaa9a75d522b39400f600060405162000121919062000330565b6040805191829003822060208301939093528101919091527fc89efdaa54c0f20c7adf612882df0950f5a951637e0307cdcb4c672f298b8bc660608201524660808201523060a082015260c00160405160208183030381529060405280519060200120905090565b600080604083850312156200019d57600080fd5b825160ff81168114620001af57600080fd5b6020939093015192949293505050565b634e487b7160e01b600052604160045260246000fd5b600181811c90821680620001ea57607f821691505b6020821081036200020b57634e487b7160e01b600052602260045260246000fd5b50919050565b601f8211156200025f57600081815260208120601f850160051c810160208610156200023a5750805b601f850160051c820191505b818110156200025b5782815560010162000246565b5050505b505050565b81516001600160401b03811115620002805762000280620001bf565b6200029881620002918454620001d5565b8462000211565b602080601f831160018114620002d05760008415620002b75750858301515b600019600386901b1c1916600185901b1785556200025b565b600085815260208120601f198616915b828110156200030157888601518255948401946001909101908401620002e0565b5085821015620003205787850151600019600388901b60f8161c191681555b5050505050600190811b01905550565b60008083546200034081620001d5565b600182811680156200035b57600181146200037157620003a2565b60ff1984168752821515830287019450620003a2565b8760005260208060002060005b85811015620003995781548a8201529084019082016200037e565b50505082870194505b50929695505050505050565b60805160a05160c05160e0516116fb6200042060003960008181610416015281816104fb0152818161053b0152818161086d015281816108ad015281816109cd01528181610a0d01528181610a4c0152610ad3015260006107e5015260006107b00152600061024001526116fb6000f3fe6080604052600436106101395760003560e01c806377737f4b116100ab578063a6c4ec0e1161006f578063a6c4ec0e14610394578063a6f9dae1146103c4578063a9059cbb146103e4578063c57981b514610404578063d505accf14610438578063dd62ed3e1461045857600080fd5b806377737f4b146102f15780637ecebe00146103075780638ad8ba69146103345780638da5cb5b1461034757806395d89b411461037f57600080fd5b8063313ce567116100fd578063313ce5671461022e5780633644e5151461027457806340f0e1eb14610289578063476343ee1461029c57806370a08231146102b15780637512e653146102de57600080fd5b806301e51f721461017a57806306fdde031461018f578063095ea7b3146101ba57806318160ddd146101ea57806323b872dd1461020e57600080fd5b366101755760405134815233907f9d27e19d8398e7e56d27c9f9d4aaa44bad4c96748fd9123de20d6b9258a170729060200160405180910390a2005b600080fd5b61018d61018836600461107a565b610490565b005b34801561019b57600080fd5b506101a46105bf565b6040516101b1919061111e565b60405180910390f35b3480156101c657600080fd5b506101da6101d5366004611184565b61064d565b60405190151581526020016101b1565b3480156101f657600080fd5b5061020060025481565b6040519081526020016101b1565b34801561021a57600080fd5b506101da6102293660046111b0565b6106ba565b34801561023a57600080fd5b506102627f000000000000000000000000000000000000000000000000000000000000000081565b60405160ff90911681526020016101b1565b34801561028057600080fd5b506102006107ac565b61018d6102973660046111f1565b610807565b3480156102a857600080fd5b5061018d61095d565b3480156102bd57600080fd5b506102006102cc36600461128b565b60036020526000908152604090205481565b61018d6102ec3660046112af565b6109cb565b3480156102fd57600080fd5b5061020060075481565b34801561031357600080fd5b5061020061032236600461128b565b60056020526000908152604090205481565b61018d61034236600461131b565b610b1b565b34801561035357600080fd5b50600654610367906001600160a01b031681565b6040516001600160a01b0390911681526020016101b1565b34801561038b57600080fd5b506101a4610c17565b3480156103a057600080fd5b506101da6103af36600461128b565b60086020526000908152604090205460ff1681565b3480156103d057600080fd5b5061018d6103df36600461128b565b610c24565b3480156103f057600080fd5b506101da6103ff366004611184565b610c70565b34801561041057600080fd5b506102007f000000000000000000000000000000000000000000000000000000000000000081565b34801561044457600080fd5b5061018d610453366004611388565b610ce8565b34801561046457600080fd5b506102006104733660046113ff565b600460209081526000928352604080842090915290825290205481565b3360009081526008602052604090205460ff1615156001146104f95760405162461bcd60e51b815260206004820152601e60248201527f464845546f6b656e3a2073656e646572206973206e6f7420612075736572000060448201526064015b60405180910390fd5b7f00000000000000000000000000000000000000000000000000000000000000003410156105395760405162461bcd60e51b81526004016104f090611438565b7f00000000000000000000000000000000000000000000000000000000000000006007600082825461056b9190611483565b909155505060405133907f34dbda72e8ad64059e77ec859e05cd1cbe6024831b61ab095ee9f76326cbd6ef906105ae908a908a908a908a908a908a908a906114bf565b60405180910390a250505050505050565b600080546105cc9061150f565b80601f01602080910402602001604051908101604052809291908181526020018280546105f89061150f565b80156106455780601f1061061a57610100808354040283529160200191610645565b820191906000526020600020905b81548152906001019060200180831161062857829003601f168201915b505050505081565b3360008181526004602090815260408083206001600160a01b038716808552925280832085905551919290917f8c5be1e5ebec7d5bd14f71427d1e84f3dd0314c0f7b2291e5b200ac8c7c3b925906106a89086815260200190565b60405180910390a35060015b92915050565b6001600160a01b03831660009081526004602090815260408083203384529091528120546000198114610716576106f18382611549565b6001600160a01b03861660009081526004602090815260408083203384529091529020555b6001600160a01b0385166000908152600360205260408120805485929061073e908490611549565b90915550506001600160a01b03808516600081815260036020526040908190208054870190555190918716907fddf252ad1be2c89b69c2b068fc378daa952ba7f163c4a11628f55a4df523b3ef906107999087815260200190565b60405180910390a3506001949350505050565b60007f000000000000000000000000000000000000000000000000000000000000000046146107e2576107dd610f2c565b905090565b507f000000000000000000000000000000000000000000000000000000000000000090565b3360009081526008602052604090205460ff16151560011461086b5760405162461bcd60e51b815260206004820152601e60248201527f464845546f6b656e3a2073656e646572206973206e6f7420612075736572000060448201526064016104f0565b7f00000000000000000000000000000000000000000000000000000000000000003410156108ab5760405162461bcd60e51b81526004016104f090611438565b7f0000000000000000000000000000000000000000000000000000000000000000600760008282546108dd9190611483565b90915550506040516000906109009033908990899089908990439060200161155c565b604051602081830303815290604052805190602001209050336001600160a01b03167f723a9df967d9904fe0a81a346e92258309af285f4251fa72d58b4d018a9dc719828989898989896040516105ae97969594939291906114bf565b6006546001600160a01b031633146109875760405162461bcd60e51b81526004016104f0906115a2565b6006546007546040516001600160a01b039092169181156108fc0291906000818181858888f193505050501580156109c3573d6000803e3d6000fd5b506000600755565b7f0000000000000000000000000000000000000000000000000000000000000000341015610a0b5760405162461bcd60e51b81526004016104f090611438565b7f000000000000000000000000000000000000000000000000000000000000000060076000828254610a3d9190611483565b90915550610a76905033610a717f000000000000000000000000000000000000000000000000000000000000000034611549565b610fc6565b3360009081526008602052604081205460ff1615159003610aac57336000908152600860205260409020805460ff191660011790555b337f75d0f66d43933e2c94758c30a77a9000cb22653a326aa536dcd1ff81ca93b12f610af87f000000000000000000000000000000000000000000000000000000000000000034611549565b86868686604051610b0d9594939291906115ed565b60405180910390a250505050565b6006546001600160a01b03163314610b455760405162461bcd60e51b81526004016104f0906115a2565b6040516001600160a01b0387169086156108fc029087906000818181858888f19350505050158015610b7b573d6000803e3d6000fd5b50856001600160a01b03167f75d0f66d43933e2c94758c30a77a9000cb22653a326aa536dcd1ff81ca93b12f600086868686604051610bbe9594939291906115ed565b60405180910390a2856001600160a01b03167f4edc1d471f3b2793a6ba7463e997dc91ed0735588fcb169dca4b11587d8a6e2d8686868686604051610c079594939291906115ed565b60405180910390a2505050505050565b600180546105cc9061150f565b6006546001600160a01b03163314610c4e5760405162461bcd60e51b81526004016104f0906115a2565b600680546001600160a01b0319166001600160a01b0392909216919091179055565b33600090815260036020526040812080548391908390610c91908490611549565b90915550506001600160a01b038316600081815260036020526040908190208054850190555133907fddf252ad1be2c89b69c2b068fc378daa952ba7f163c4a11628f55a4df523b3ef906106a89086815260200190565b42841015610d385760405162461bcd60e51b815260206004820152601760248201527f5045524d49545f444541444c494e455f4558504952454400000000000000000060448201526064016104f0565b60006001610d446107ac565b6001600160a01b038a811660008181526005602090815260409182902080546001810190915582517f6e71edae12b1b97f4d1f60370fef10105fa2faae0126114a169c64845d6126c98184015280840194909452938d166060840152608083018c905260a083019390935260c08083018b90528151808403909101815260e08301909152805192019190912061190160f01b6101008301526101028201929092526101228101919091526101420160408051601f198184030181528282528051602091820120600084529083018083525260ff871690820152606081018590526080810184905260a0016020604051602081039080840390855afa158015610e50573d6000803e3d6000fd5b5050604051601f1901519150506001600160a01b03811615801590610e865750876001600160a01b0316816001600160a01b0316145b610ec35760405162461bcd60e51b815260206004820152600e60248201526d24a72b20a624a22fa9a4a3a722a960911b60448201526064016104f0565b6001600160a01b0390811660009081526004602090815260408083208a8516808552908352928190208990555188815291928a16917f8c5be1e5ebec7d5bd14f71427d1e84f3dd0314c0f7b2291e5b200ac8c7c3b925910160405180910390a350505050505050565b60007f8b73c3c69bb8fe3d512ecc4cf759cc79239f7b179b0ffacaa9a75d522b39400f6000604051610f5e9190611626565b6040805191829003822060208301939093528101919091527fc89efdaa54c0f20c7adf612882df0950f5a951637e0307cdcb4c672f298b8bc660608201524660808201523060a082015260c00160405160208183030381529060405280519060200120905090565b8060026000828254610fd89190611483565b90915550506001600160a01b0382166000818152600360209081526040808320805486019055518481527fddf252ad1be2c89b69c2b068fc378daa952ba7f163c4a11628f55a4df523b3ef910160405180910390a35050565b60008083601f84011261104357600080fd5b50813567ffffffffffffffff81111561105b57600080fd5b60208301915083602082850101111561107357600080fd5b9250929050565b60008060008060008060006080888a03121561109557600080fd5b87359650602088013567ffffffffffffffff808211156110b457600080fd5b6110c08b838c01611031565b909850965060408a01359150808211156110d957600080fd5b6110e58b838c01611031565b909650945060608a01359150808211156110fe57600080fd5b5061110b8a828b01611031565b989b979a50959850939692959293505050565b600060208083528351808285015260005b8181101561114b5785810183015185820160400152820161112f565b506000604082860101526040601f19601f8301168501019250505092915050565b6001600160a01b038116811461118157600080fd5b50565b6000806040838503121561119757600080fd5b82356111a28161116c565b946020939093013593505050565b6000806000606084860312156111c557600080fd5b83356111d08161116c565b925060208401356111e08161116c565b929592945050506040919091013590565b6000806000806000806060878903121561120a57600080fd5b863567ffffffffffffffff8082111561122257600080fd5b61122e8a838b01611031565b9098509650602089013591508082111561124757600080fd5b6112538a838b01611031565b9096509450604089013591508082111561126c57600080fd5b5061127989828a01611031565b979a9699509497509295939492505050565b60006020828403121561129d57600080fd5b81356112a88161116c565b9392505050565b600080600080604085870312156112c557600080fd5b843567ffffffffffffffff808211156112dd57600080fd5b6112e988838901611031565b9096509450602087013591508082111561130257600080fd5b5061130f87828801611031565b95989497509550505050565b6000806000806000806080878903121561133457600080fd5b863561133f8161116c565b955060208701359450604087013567ffffffffffffffff8082111561136357600080fd5b61136f8a838b01611031565b9096509450606089013591508082111561126c57600080fd5b600080600080600080600060e0888a0312156113a357600080fd5b87356113ae8161116c565b965060208801356113be8161116c565b95506040880135945060608801359350608088013560ff811681146113e257600080fd5b9699959850939692959460a0840135945060c09093013592915050565b6000806040838503121561141257600080fd5b823561141d8161116c565b9150602083013561142d8161116c565b809150509250929050565b6020808252818101527f464845546f6b656e3a206d73672e76616c75652069736e742067657120464545604082015260600190565b634e487b7160e01b600052601160045260246000fd5b808201808211156106b4576106b461146d565b81835281816020850137506000828201602090810191909152601f909101601f19169091010190565b8781526080602082015260006114d960808301888a611496565b82810360408401526114ec818789611496565b90508281036060840152611501818587611496565b9a9950505050505050505050565b600181811c9082168061152357607f821691505b60208210810361154357634e487b7160e01b600052602260045260246000fd5b50919050565b818103818111156106b4576106b461146d565b6bffffffffffffffffffffffff198760601b1681528486601483013760008582016014810160008152858782375060149401938401929092525050603401949350505050565b6020808252602b908201527f464845546f6b656e3a206f6e6c79206f776e65722063616e2063616c6c20746860408201526a34b990333ab731ba34b7b760a91b606082015260800190565b858152606060208201526000611607606083018688611496565b828103604084015261161a818587611496565b98975050505050505050565b600080835481600182811c91508083168061164257607f831692505b6020808410820361166157634e487b7160e01b86526022600452602486fd5b818015611675576001811461168a576116b7565b60ff19861689528415158502890196506116b7565b60008a81526020902060005b868110156116af5781548b820152908501908301611696565b505084890196505b50949897505050505050505056fea26469706673582212201f331eb47a758fe1837c3dd7e02e255e62503f1a8cbdb74fe23c34a072ff265864736f6c63430008140033",
    "linkReferences": {}
  },
  "methodIdentifiers": {
    "DOMAIN_SEPARATOR()": "3644e515",
    "FEE()": "c57981b5",
    "allowance(address,address)": "dd62ed3e",
    "approve(address,uint256)": "095ea7b3",
    "balanceOf(address)": "70a08231",
    "changeOwner(address)": "a6f9dae1",
    "decimals()": "313ce567",
    "deposit_fETH(string,string)": "7512e653",
    "hasUser(address)": "a6c4ec0e",
    "name()": "06fdde03",
    "nonces(address)": "7ecebe00",
    "owner()": "8da5cb5b",
    "permit(address,address,uint256,uint256,uint8,bytes32,bytes32)": "d505accf",
    "send_fhe_tx(string,string,string)": "40f0e1eb",
    "symbol()": "95d89b41",
    "totalSupply()": "18160ddd",
    "total_fees()": "77737f4b",
    "transfer(address,uint256)": "a9059cbb",
    "transferFrom(address,address,uint256)": "23b872dd",
    "withdrawFees()": "476343ee",
    "withdraw_ETH_approved(address,uint256,string,string)": "8ad8ba69",
    "withdraw_ETH_request(uint256,string,string,string)": "01e51f72"
  },
  "id": 20
}